{
  "contractName": "KatCoin",
  "abi": [
    {
      "constant": true,
      "inputs": [],
      "name": "owner",
      "outputs": [
        {
          "name": "",
          "type": "address"
        }
      ],
      "payable": false,
      "stateMutability": "view",
      "type": "function"
    },
    {
      "constant": false,
      "inputs": [
        {
          "name": "newOwner",
          "type": "address"
        }
      ],
      "name": "transferOwnership",
      "outputs": [],
      "payable": false,
      "stateMutability": "nonpayable",
      "type": "function"
    },
    {
      "inputs": [],
      "payable": false,
      "stateMutability": "nonpayable",
      "type": "constructor"
    },
    {
      "anonymous": false,
      "inputs": [
        {
          "indexed": false,
          "name": "owner",
          "type": "address"
        },
        {
          "indexed": false,
          "name": "katId",
          "type": "uint256"
        },
        {
          "indexed": false,
          "name": "genes",
          "type": "uint256"
        }
      ],
      "name": "Minted",
      "type": "event"
    },
    {
      "anonymous": false,
      "inputs": [
        {
          "indexed": false,
          "name": "from",
          "type": "address"
        },
        {
          "indexed": false,
          "name": "to",
          "type": "address"
        },
        {
          "indexed": false,
          "name": "katId",
          "type": "uint256"
        }
      ],
      "name": "Sent",
      "type": "event"
    },
    {
      "constant": true,
      "inputs": [
        {
          "name": "owner",
          "type": "address"
        }
      ],
      "name": "balanceOf",
      "outputs": [
        {
          "name": "",
          "type": "uint256"
        }
      ],
      "payable": false,
      "stateMutability": "view",
      "type": "function"
    },
    {
      "constant": true,
      "inputs": [
        {
          "name": "katId",
          "type": "uint256"
        }
      ],
      "name": "ownerOf",
      "outputs": [
        {
          "name": "",
          "type": "address"
        }
      ],
      "payable": false,
      "stateMutability": "view",
      "type": "function"
    },
    {
      "constant": true,
      "inputs": [
        {
          "name": "katId",
          "type": "uint256"
        }
      ],
      "name": "getKat",
      "outputs": [
        {
          "name": "color",
          "type": "uint32"
        },
        {
          "name": "generation",
          "type": "uint16"
        }
      ],
      "payable": false,
      "stateMutability": "view",
      "type": "function"
    },
    {
      "constant": false,
      "inputs": [
        {
          "name": "katId",
          "type": "uint256"
        }
      ],
      "name": "purchase",
      "outputs": [],
      "payable": true,
      "stateMutability": "payable",
      "type": "function"
    }
  ],
  "bytecode": "0x608060405234801561001057600080fd5b506000336000806101000a81548173ffffffffffffffffffffffffffffffffffffffff021916908373ffffffffffffffffffffffffffffffffffffffff160217905550600090505b601e8163ffffffff16101561013a57600160408051908101604052806020600385010263ffffffff168152602001600061ffff1681525090806001815401808255809150509060018203906000526020600020016000909192909190915060008201518160000160006101000a81548163ffffffff021916908363ffffffff16021790555060208201518160000160046101000a81548161ffff021916908361ffff16021790555050505061012d3060018080549050036020840263ffffffff16610140640100000000026401000000009004565b8080600101915050610058565b50610320565b600073ffffffffffffffffffffffffffffffffffffffff168373ffffffffffffffffffffffffffffffffffffffff161415151561017c57600080fd5b610195838361020d640100000000026401000000009004565b7f25b428dfde728ccfaddad7e29e4ac23c24ed7fd1a6e3e3f91894a9a073f5dfff838383604051808473ffffffffffffffffffffffffffffffffffffffff1673ffffffffffffffffffffffffffffffffffffffff168152602001838152602001828152602001935050505060405180910390a1505050565b600073ffffffffffffffffffffffffffffffffffffffff166002600083815260200190815260200160002060009054906101000a900473ffffffffffffffffffffffffffffffffffffffff1673ffffffffffffffffffffffffffffffffffffffff1614151561027b57600080fd5b816002600083815260200190815260200160002060006101000a81548173ffffffffffffffffffffffffffffffffffffffff021916908373ffffffffffffffffffffffffffffffffffffffff160217905550600360008373ffffffffffffffffffffffffffffffffffffffff1673ffffffffffffffffffffffffffffffffffffffff168152602001908152602001600020600081548092919060010191905055505050565b6109308061032f6000396000f300608060405260043610610078576000357c0100000000000000000000000000000000000000000000000000000000900463ffffffff1680636352211e1461007d57806370a08231146100ea5780638da5cb5b14610141578063e31c062114610198578063efef39a1146101f4578063f2fde38b14610214575b600080fd5b34801561008957600080fd5b506100a860048036038101908080359060200190929190505050610257565b604051808273ffffffffffffffffffffffffffffffffffffffff1673ffffffffffffffffffffffffffffffffffffffff16815260200191505060405180910390f35b3480156100f657600080fd5b5061012b600480360381019080803573ffffffffffffffffffffffffffffffffffffffff1690602001909291905050506102d5565b6040518082815260200191505060405180910390f35b34801561014d57600080fd5b50610156610359565b604051808273ffffffffffffffffffffffffffffffffffffffff1673ffffffffffffffffffffffffffffffffffffffff16815260200191505060405180910390f35b3480156101a457600080fd5b506101c36004803603810190808035906020019092919050505061037e565b604051808363ffffffff1663ffffffff1681526020018261ffff1661ffff1681526020019250505060405180910390f35b610212600480360381019080803590602001909291905050506103d0565b005b34801561022057600080fd5b50610255600480360381019080803573ffffffffffffffffffffffffffffffffffffffff1690602001909291905050506104d2565b005b6000806002600084815260200190815260200160002060009054906101000a900473ffffffffffffffffffffffffffffffffffffffff169050600073ffffffffffffffffffffffffffffffffffffffff168173ffffffffffffffffffffffffffffffffffffffff16141515156102cc57600080fd5b80915050919050565b60008073ffffffffffffffffffffffffffffffffffffffff168273ffffffffffffffffffffffffffffffffffffffff161415151561031257600080fd5b600360008373ffffffffffffffffffffffffffffffffffffffff1673ffffffffffffffffffffffffffffffffffffffff168152602001908152602001600020549050919050565b6000809054906101000a900473ffffffffffffffffffffffffffffffffffffffff1681565b600080600060018481548110151561039257fe5b9060005260206000200190508060000160009054906101000a900463ffffffff1692508060000160049054906101000a900461ffff16915050915091565b600081101515156103e057600080fd5b601e811015156103ef57600080fd5b6002600082815260200190815260200160002060009054906101000a900473ffffffffffffffffffffffffffffffffffffffff1673ffffffffffffffffffffffffffffffffffffffff163073ffffffffffffffffffffffffffffffffffffffff1614151561045c57600080fd5b6104673033836105a7565b6000809054906101000a900473ffffffffffffffffffffffffffffffffffffffff1673ffffffffffffffffffffffffffffffffffffffff166108fc349081150290604051600060405180830381858888f193505050501580156104ce573d6000803e3d6000fd5b5050565b6000809054906101000a900473ffffffffffffffffffffffffffffffffffffffff1673ffffffffffffffffffffffffffffffffffffffff163373ffffffffffffffffffffffffffffffffffffffff1614151561052d57600080fd5b600073ffffffffffffffffffffffffffffffffffffffff168173ffffffffffffffffffffffffffffffffffffffff161415156105a457806000806101000a81548173ffffffffffffffffffffffffffffffffffffffff021916908373ffffffffffffffffffffffffffffffffffffffff1602179055505b50565b6002600082815260200190815260200160002060009054906101000a900473ffffffffffffffffffffffffffffffffffffffff1673ffffffffffffffffffffffffffffffffffffffff168373ffffffffffffffffffffffffffffffffffffffff1614151561061457600080fd5b600073ffffffffffffffffffffffffffffffffffffffff168273ffffffffffffffffffffffffffffffffffffffff161415151561065057600080fd5b61065a8382610708565b61066482826107f1565b7f3990db2d31862302a685e8086b5755072a6e2b5b780af1ee81ece35ee3cd3345838383604051808473ffffffffffffffffffffffffffffffffffffffff1673ffffffffffffffffffffffffffffffffffffffff1681526020018373ffffffffffffffffffffffffffffffffffffffff1673ffffffffffffffffffffffffffffffffffffffff168152602001828152602001935050505060405180910390a1505050565b8173ffffffffffffffffffffffffffffffffffffffff1661072882610257565b73ffffffffffffffffffffffffffffffffffffffff1614151561074a57600080fd5b600360008373ffffffffffffffffffffffffffffffffffffffff1673ffffffffffffffffffffffffffffffffffffffff168152602001908152602001600020600081548092919060019003919050555060006002600083815260200190815260200160002060006101000a81548173ffffffffffffffffffffffffffffffffffffffff021916908373ffffffffffffffffffffffffffffffffffffffff1602179055505050565b600073ffffffffffffffffffffffffffffffffffffffff166002600083815260200190815260200160002060009054906101000a900473ffffffffffffffffffffffffffffffffffffffff1673ffffffffffffffffffffffffffffffffffffffff1614151561085f57600080fd5b816002600083815260200190815260200160002060006101000a81548173ffffffffffffffffffffffffffffffffffffffff021916908373ffffffffffffffffffffffffffffffffffffffff160217905550600360008373ffffffffffffffffffffffffffffffffffffffff1673ffffffffffffffffffffffffffffffffffffffff1681526020019081526020016000206000815480929190600101919050555050505600a165627a7a72305820b10569dad29fa65573fb9089f4ee2e705619eeea5b2607c195493a913c968f740029",
  "source": "pragma solidity ^0.4.24;\n\nimport './Ownable.sol';\n\n/**\n * @title ERC721 Non-Fungible Token Standard basic implementation\n * @dev see https://github.com/ethereum/EIPs/blob/master/EIPS/eip-721.md\n */\ncontract KatCoin is Ownable {\n\n  // @dev This event is emitted whenever a new KatCoin is minted\n  event Minted(address owner, uint256 katId, uint256 genes);\n\n  // @dev This event is emitted when a kat has been sent\n  event Sent(address from, address to, uint256 katId);\n\n  struct Kat {\n    uint32 color;\n    uint16 generation;\n  }\n\n  Kat[] kats;\n\n  // Mapping from kat ID to owner\n  mapping (uint256 => address) private _katOwner;\n\n  // Mapping from owner to number of owned KatCoins\n  mapping (address => uint256) private _ownedKatsCount;\n\n  // Minting 30 KatCoins upon the initialization of this contract\n  // (For the purposes of this demonstration only)\n  constructor() public {\n    for (uint32 i = 0; i < 30; i++) {\n      kats.push(Kat((i + 3) * 32, 0));\n      _mint(address(this), kats.length - 1, i * 32);\n    }\n  }\n\n  /**\n   * @dev Gets the balance of the specified address\n   * @param owner address to query the balance of\n   * @return uint256 representing the amount owned by the passed address\n   */\n  function balanceOf(address owner) public view returns (uint256) {\n    require(owner != address(0));\n    return _ownedKatsCount[owner];\n  }\n\n  /**\n   * @dev Gets the owner of the specified kat ID\n   * @param katId uint256 ID of the kat to query the owner of\n   * @return owner address currently marked as the owner of the given kat ID\n   */\n  function ownerOf(uint256 katId) public view returns (address) {\n    address owner = _katOwner[katId];\n    require(owner != address(0));\n    return owner;\n  }\n\n  function getKat(uint256 katId) public view returns (uint32 color, uint16 generation) {\n    Kat storage kat = kats[katId];\n\n    color = kat.color;\n    generation = kat.generation;\n  }\n\n  function purchase(uint256 katId) public payable {\n    require(katId >= 0);\n    require(katId < 30);\n    require(address(this) == _katOwner[katId]);\n    _transferFrom(address(this), msg.sender, katId);\n    owner.transfer(msg.value);\n  }\n\n  function _transferFrom(address from, address to, uint256 katId) internal {\n    require(from == _katOwner[katId]);\n    require(to != address(0));\n\n    _removeKatFrom(from, katId);\n    _addKatTo(to, katId);\n\n    emit Sent(from, to, katId);\n  }\n\n  /**\n   * @dev Internal function to mint a new kat\n   * Reverts if the given kat ID already exists\n   * @param to The address that will own the minted kat\n   * @param katId uint256 ID of the kat to be minted by the msg.sender\n   */\n  function _mint(address to, uint256 katId, uint256 genes) internal {\n    require(to != address(0));\n    _addKatTo(to, katId);\n    emit Minted(to, katId, genes);\n  }\n\n  /**\n   * @dev Internal function to add a kat ID to the list of a given address\n   * @param to address representing the new owner of the given kat ID\n   * @param katId uint256 ID of the kat to be added to the kats list of the given address\n   */\n  function _addKatTo(address to, uint256 katId) internal {\n    require(_katOwner[katId] == address(0));\n    _katOwner[katId] = to;\n    _ownedKatsCount[to]++;\n  }\n\n  /**\n   * @dev Internal function to remove a kat ID from the list of a given address\n   * @param from address representing the previous owner of the given kat ID\n   * @param katId uint256 ID of the kat to be removed from the kats list of the given address\n   */\n  function _removeKatFrom(address from, uint256 katId) internal {\n    require(ownerOf(katId) == from);\n    _ownedKatsCount[from]--;\n    _katOwner[katId] = address(0);\n  }\n}\n",
  "sourcePath": "/Users/juliachou/src/dapp-demo/contracts/KatCoin.sol",
  "compiler": {
    "name": "solc",
    "version": "0.4.26+commit.4563c3fc.Emscripten.clang"
  },
  "schemaVersion": "3.0.9",
  "updatedAt": "2019-10-09T20:43:43.929Z",
  "devdoc": {
    "methods": {
      "balanceOf(address)": {
        "details": "Gets the balance of the specified address",
        "params": {
          "owner": "address to query the balance of"
        },
        "return": "uint256 representing the amount owned by the passed address"
      },
      "ownerOf(uint256)": {
        "details": "Gets the owner of the specified kat ID",
        "params": {
          "katId": "uint256 ID of the kat to query the owner of"
        },
        "return": "owner address currently marked as the owner of the given kat ID"
      },
      "transferOwnership(address)": {
        "details": "Allows the current owner to transfer control of the contract to a newOwner.",
        "params": {
          "newOwner": "The address to transfer ownership to."
        }
      }
    },
    "title": "ERC721 Non-Fungible Token Standard basic implementation"
  },
  "userdoc": {
    "methods": {}
  }
}